{
  "contractName": "PodAccessLogger",
  "abi": [
    {
      "anonymous": false,
      "inputs": [
        {
          "indexed": true,
          "internalType": "address",
          "name": "server",
          "type": "address"
        },
        {
          "indexed": false,
          "internalType": "string",
          "name": "podUrl",
          "type": "string"
        },
        {
          "indexed": false,
          "internalType": "uint256",
          "name": "timestamp",
          "type": "uint256"
        }
      ],
      "name": "PodAccessRecorded",
      "type": "event"
    },
    {
      "inputs": [
        {
          "internalType": "string",
          "name": "",
          "type": "string"
        },
        {
          "internalType": "uint256",
          "name": "",
          "type": "uint256"
        }
      ],
      "name": "podAccesses",
      "outputs": [
        {
          "internalType": "address",
          "name": "server",
          "type": "address"
        },
        {
          "internalType": "uint256",
          "name": "timestamp",
          "type": "uint256"
        }
      ],
      "stateMutability": "view",
      "type": "function",
      "constant": true
    },
    {
      "inputs": [
        {
          "internalType": "string",
          "name": "podUrl",
          "type": "string"
        }
      ],
      "name": "recordAccess",
      "outputs": [],
      "stateMutability": "nonpayable",
      "type": "function"
    },
    {
      "inputs": [
        {
          "internalType": "string",
          "name": "podUrl",
          "type": "string"
        }
      ],
      "name": "getAccesses",
      "outputs": [
        {
          "components": [
            {
              "internalType": "address",
              "name": "server",
              "type": "address"
            },
            {
              "internalType": "uint256",
              "name": "timestamp",
              "type": "uint256"
            }
          ],
          "internalType": "struct PodAccessLogger.Access[]",
          "name": "",
          "type": "tuple[]"
        }
      ],
      "stateMutability": "view",
      "type": "function",
      "constant": true
    }
  ],
  "bytecode": "0x608060405234801561001057600080fd5b50610842806100206000396000f3fe608060405234801561001057600080fd5b50600436106100415760003560e01c806343b6437914610046578063d223692814610076578063e1d3b27614610092575b600080fd5b610060600480360381019061005b919061048f565b6100c3565b60405161006d9190610610565b60405180910390f35b610090600480360381019061008b919061048f565b6101a0565b005b6100ac60048036038101906100a7919061065e565b6102be565b6040516100ba9291906106d8565b60405180910390f35b60606000826040516100d5919061077b565b9081526020016040518091039020805480602002602001604051908101604052809291908181526020016000905b8282101561019557838290600052602060002090600202016040518060400160405290816000820160009054906101000a900473ffffffffffffffffffffffffffffffffffffffff1673ffffffffffffffffffffffffffffffffffffffff1673ffffffffffffffffffffffffffffffffffffffff16815260200160018201548152505081526020019060010190610103565b505050509050919050565b600060405180604001604052803373ffffffffffffffffffffffffffffffffffffffff1681526020014281525090506000826040516101df919061077b565b908152602001604051809103902081908060018154018082558091505060019003906000526020600020906002020160009091909190915060008201518160000160006101000a81548173ffffffffffffffffffffffffffffffffffffffff021916908373ffffffffffffffffffffffffffffffffffffffff1602179055506020820151816001015550503373ffffffffffffffffffffffffffffffffffffffff167f0bce609b00d5f838e324ff80427e09c76241c200b23bfd9d3f0c2c797e019a8383426040516102b29291906107dc565b60405180910390a25050565b60008280516020810182018051848252602083016020850120818352809550505050505081815481106102f057600080fd5b9060005260206000209060020201600091509150508060000160009054906101000a900473ffffffffffffffffffffffffffffffffffffffff16908060010154905082565b6000604051905090565b600080fd5b600080fd5b600080fd5b600080fd5b6000601f19601f8301169050919050565b7f4e487b7100000000000000000000000000000000000000000000000000000000600052604160045260246000fd5b61039c82610353565b810181811067ffffffffffffffff821117156103bb576103ba610364565b5b80604052505050565b60006103ce610335565b90506103da8282610393565b919050565b600067ffffffffffffffff8211156103fa576103f9610364565b5b61040382610353565b9050602081019050919050565b82818337600083830152505050565b600061043261042d846103df565b6103c4565b90508281526020810184848401111561044e5761044d61034e565b5b610459848285610410565b509392505050565b600082601f83011261047657610475610349565b5b813561048684826020860161041f565b91505092915050565b6000602082840312156104a5576104a461033f565b5b600082013567ffffffffffffffff8111156104c3576104c2610344565b5b6104cf84828501610461565b91505092915050565b600081519050919050565b600082825260208201905092915050565b6000819050602082019050919050565b600073ffffffffffffffffffffffffffffffffffffffff82169050919050565b600061052f82610504565b9050919050565b61053f81610524565b82525050565b6000819050919050565b61055881610545565b82525050565b6040820160008201516105746000850182610536565b506020820151610587602085018261054f565b50505050565b6000610599838361055e565b60408301905092915050565b6000602082019050919050565b60006105bd826104d8565b6105c781856104e3565b93506105d2836104f4565b8060005b838110156106035781516105ea888261058d565b97506105f5836105a5565b9250506001810190506105d6565b5085935050505092915050565b6000602082019050818103600083015261062a81846105b2565b905092915050565b61063b81610545565b811461064657600080fd5b50565b60008135905061065881610632565b92915050565b600080604083850312156106755761067461033f565b5b600083013567ffffffffffffffff81111561069357610692610344565b5b61069f85828601610461565b92505060206106b085828601610649565b9150509250929050565b6106c381610524565b82525050565b6106d281610545565b82525050565b60006040820190506106ed60008301856106ba565b6106fa60208301846106c9565b9392505050565b600081519050919050565b600081905092915050565b60005b8381101561073557808201518184015260208101905061071a565b83811115610744576000848401525b50505050565b600061075582610701565b61075f818561070c565b935061076f818560208601610717565b80840191505092915050565b6000610787828461074a565b915081905092915050565b600082825260208201905092915050565b60006107ae82610701565b6107b88185610792565b93506107c8818560208601610717565b6107d181610353565b840191505092915050565b600060408201905081810360008301526107f681856107a3565b905061080560208301846106c9565b939250505056fea2646970667358221220554ef64f7a3fc7a0dcd80d1116d47a9817860087cf18192580fd232639414fa964736f6c634300080d0033",
  "immutableReferences": {},
  "source": "// SPDX-License-Identifier: MIT\npragma solidity ^0.8.13;\n\ncontract PodAccessLogger {\n    // Evento emesso quando il FS accede a un POD\n    event PodAccessRecorded(address indexed server, string podUrl, uint256 timestamp);\n\n    // Struttura per memorizzare gli accessi\n    struct Access {\n        address server; // Chi ha effettuato l'accesso\n        uint256 timestamp; // Quando  stato effettuato\n    }\n\n    // Mappatura per memorizzare gli accessi per ogni POD\n    mapping(string => Access[]) public podAccesses;\n\n    // Metodo per registrare un accesso al POD\n    function recordAccess(string memory podUrl) public {\n        Access memory newAccess = Access(\n            msg.sender,\n            block.timestamp\n        );\n\n        podAccesses[podUrl].push(newAccess);\n\n        // Emetti l'evento di accesso\n        emit PodAccessRecorded(msg.sender, podUrl, block.timestamp);\n    }\n\n    function getAccesses(string memory podUrl) public view returns (Access[] memory) {\n        return podAccesses[podUrl];\n    }\n}\n",
  "sourcePath": "/Users/gerardodonnarumma/Desktop/tesi_smart_contract/contracts/PodAccessLogger.sol",
  "compiler": {
    "name": "solc",
    "version": "0.8.13+commit.abaa5c0e.Emscripten.clang"
  },
  "schemaVersion": "3.4.16",
  "updatedAt": "2024-05-29T12:21:31.061Z",
  "networkType": "ethereum",
  "devdoc": {
    "kind": "dev",
    "methods": {},
    "version": 1
  },
  "userdoc": {
    "kind": "user",
    "methods": {},
    "version": 1
  }
}